:020000040800F2
:100000000028002051180008751700087B17000809
:1000100081170008871700088D17000800000000EE
:10002000000000000000000000000000931700081E
:100030009F17000800000000AB170008B717000862
:1000400099180008991800089918000899180008CC
:1000500099180008991800089918000899180008BC
:1000600099180008991800089918000899180008AC
:10007000991800089918000899180008991800089C
:10008000991800089918000899180008991800088C
:10009000991800089918000899180008991800087C
:1000A000991800089918000899180008991800086C
:1000B000C5170008991800080000000099180008EA
:1000C00099180008000000000000000099180008BE
:1000D00000000000991800089918000800000000AE
:1000E00099180008991800089918000800000000E5
:1000F0000000000000000000000000000000000000
:0C01000000000000000000005FF808F1A3
:10010C0010B5054C237833B9044B13B10448AFF345
:10011C0000800123237010BDAC0000200000000003
:10012C007C30000808B5034B1BB103490348AFF3FF
:10013C00008008BD00000000B00000207C300008EA
:10014C0080B582B000AF00237B6073E03D4A7B68D2
:10015C00134419783C4A7B6813440A461A703B4A8C
:10016C007B6813441978374A7B6813440A461A7023
:10017C00374A7B6852F8232036497B6831F81330B4
:10018C001946104601F06EFE034619462F4A7B684D
:10019C0013440A461A702C4A7B6813441A7829496E
:1001AC007B680B441B789A4241D1264A7B681344E6
:1001BC001A7826497B680B441B789A4237D1264A19
:1001CC007B6813441A7821497B680B441B789A424C
:1001DC0019D01E4A7B68134419781F4A7B68134454
:1001EC000A461A701C4A7B6813441B78002B1ED1DC
:1001FC001A4A7B68012142F82310194A7B68642152
:10020C0042F8231013E0164A7B6852F823305A1E2A
:10021C0013497B6841F82320114A7B6852F823303C
:10022C00002B04DC0C4A7B68134401221A707B6897
:10023C0001337B607B68022B88DD00BF00BF083771
:10024C00BD4680BD08000020040000200C000020EA
:10025C00100000201C00002000000020C80000201E
:10026C00D400002080B483B000AF78607B68022B90
:10027C0001DD00230DE0094A7B6852F82330012B85
:10028C0006D1064A7B68002142F82310012300E0C6
:10029C00002318460C37BD4680BC7047C8000020B0
:1002AC0080B500AF01224FF4FC61024801F0F1FD72
:1002BC0000BF80BD0008014080B582B000AF7860FF
:1002CC00FFF7EEFF7B681E3B032B27D801A252F8E9
:1002DC0023F000BFF1020008FF0200080D03000824
:1002EC001B03000800224FF484610F4801F0D1FD7C
:1002FC0015E000224FF408710B4801F0CAFD0EE026
:10030C0000224FF4C071084801F0C3FD07E0002241
:10031C004FF4A071044801F0BCFD00E000BF00BF29
:10032C000837BD4680BD00BF0008014080B582B0D3
:10033C0000AF78607B68242B15D07B68242B18DCED
:10034C007B68222B03D07B68232B06D011E04FF463
:10035C0090710A4801F0B5FD0BE04FF4107107489D
:10036C0001F0AFFD05E04FF49061044801F0A9FDE8
:10037C0000BF00BF0837BD4680BD00BF000801406C
:10038C0080B582B000AF786039607B68012B58D1A2
:10039C0000F050F93B68092B50D801A252F823F019
:1003AC00D5030008E1030008F1030008FD03000871
:1003BC000904000815040008210400082D04000895
:1003CC00190500083D04000801224021544801F0A1
:1003DC0060FDA0E000F016F900220621504801F063
:1003EC0058FD98E0012224214D4801F052FD92E085
:1003FC00012230214A4801F04CFD8CE001221921E8
:10040C00474801F046FD86E001221221444801F0E4
:10041C0040FD80E001220221414801F03AFD7AE0E2
:10042C0000F0F0F8002207213D4801F032FD72E0A7
:10043C00012210213A4801F02CFD6CE000F0D6F8B6
:10044C0069E07B68022B63D100F000F93B68092B53
:10045C0059D801A252F823F08D0400089B0400081F
:10046C00AD040008BB040008C9040008D704000848
:10047C00E5040008F3040008210500080505000840
:10048C0001224FF40051264801F003FD43E000F037
:10049C00C5F800224FF44071214801F0FAFC3AE013
:1004AC0001224FF490511E4801F0F3FC33E001227D
:1004BC004FF4C0511A4801F0ECFC2CE001224FF42F
:1004CC004861174801F0E5FC25E001224FF410616A
:1004DC00134801F0DEFC1EE001224FF4807110483D
:1004EC0001F0D7FC17E000F099F800224FF460718E
:1004FC000B4801F0CEFC0EE001224FF400610848DD
:10050C0001F0C7FC07E000F071F804E000BF02E066
:10051C0000BF00E000BF00BF0837BD4680BD00BF74
:10052C00000C014080B582B000AF78607B68032B73
:10053C0046D801A252F823F05505000873050008AF
:10054C0091050008AF05000800224FF400611F4818
:10055C0001F09FFC1E4A7B6852F82330194601209B
:10056C00FFF70EFF2DE000224FF48051174801F0E9
:10057C0090FC174A7B6852F8233019460120FFF78C
:10058C00FFFE1EE000224FF40051104801F081FCE8
:10059C000F4A7B6852F8233019460220FFF7F0FE11
:1005AC000FE000224FF48041084801F072FC084A29
:1005BC007B6852F8233019460220FFF7E1FE00E079
:1005CC0000BF00BF0837BD4680BD00BF000801401A
:1005DC00EC00002080B500AF01224FF4F04102483E
:1005EC0001F057FC00BF80BD0008014080B500AF92
:1005FC00012243F6FF71024801F04BFC00BF80BDA5
:10060C00000C014080B500AF01227F21024801F0AF
:10061C0040FC00BF80BD00BF000C014080B500AFA6
:10062C0001224FF47E51024801F033FC00BF80BD23
:10063C00000C014080B500AF00227F21024801F080
:10064C0028FC00BF80BD00BF000C014080B500AF8E
:10065C0000224FF47E51024801F01BFC00BF80BD0C
:10066C00000C014080B483B000AF786039607B68C7
:10067C00184A82FB03129210DB17D31A164A136026
:10068C007968144B83FB01239A10CB17D21A1346AB
:10069C009B0013445B00CA1A0F4B5A603B680D4A0F
:1006AC0082FB03129210DB17D31A0B4A9360396842
:1006BC00084B83FB01239A10CB17D21A13469B00CD
:1006CC0013445B00CA1A044BDA6000BF0C37BD46FA
:1006DC0080BC704767666666EC00002080B500AF92
:1006EC00944B1B68043B1D2B00F21F8101A252F896
:1006FC0023F000BF79070008370900083709000804
:10070C0037090008370900083709000837090008BD
:10071C0037090008370900083709000837090008AD
:10072C00370900083709000837090008370900089D
:10073C00370900083709000837090008370900088D
:10074C00370900083709000837090008370900087D
:10075C00370900083709000837090008FB070008AB
:10076C004908000897080008E5080008FFF798FDFD
:10077C00FFF730FFFFF73AFF6F4B1B686F4A82FBA6
:10078C0003125211DB17D31A6D4A13606D4B1B68A1
:10079C006A4A82FB03125211DB17D31A6A4A13609E
:1007AC006A4B1B68654A82FB03125211DB17D31A82
:1007BC00674A13600020FFF755FD0346002B00F03D
:1007CC00B680624B1B681946012000F01BFF6421A8
:1007DC00032000F017FF5A4B1B685D4A1268114644
:1007EC001846FFF73FFF534B1E221A609FE01E2056
:1007FC00FFF762FD5649524800F0F8F8012000F06E
:10080C0019FF0346002B16D000F01EF964210320BB
:10081C0000F0F8FE4A4B1B684B4A1268114618460A
:10082C00FFF720FF434B1F221A60464B1B681946EB
:10083C00012000F0E7FE00F08DF879E01F20FFF7B3
:10084C003BFD41493E4800F0D1F8012000F0F2FE9A
:10085C000346002B16D000F0F7F86421032000F0BB
:10086C00D1FE3B4B1B68364A126811461846FFF7FF
:10087C00F9FE304B20221A60344B1B6819460120BC
:10088C0000F0C0FE00F066F852E02020FFF714FDE7
:10089C002B492F4800F0AAF8012000F0CBFE0346AC
:1008AC00002B16D000F0D0F86421032000F0AAFE33
:1008BC00254B1B68224A126811461846FFF7D2FED8
:1008CC001C4B21221A601F4B1B681946012000F09B
:1008DC0099FE00F03FF82BE02120FFF7EDFC1849C2
:1008EC00194800F083F800F0AFF8012000F0A2FEE8
:1008FC000346002B16D000F0A7F86421032000F06B
:10090C0081FE0F4B1B68124A126811461846FFF7FE
:10091C00A9FE084B1E221A600C4B1B6819460120BD
:10092C0000F070FE00F016F802E000BF00E000BF1F
:10093C0000BF80BD240000202C0000201F85EB513F
:10094C00300100203000002028010020340000205D
:10095C002C01002080B500AF0020FFF783FC03467C
:10096C00002B2ED0FFF79CFC174B1B68174A82FB01
:10097C0003125211DB17D31A154A1360154B1B685F
:10098C00124A82FB03125211DB17D31A124A13605C
:10099C00124B1B680D4A82FB03125211DB17D31A40
:1009AC000F4A13600A4B1B6802211846FFF75AFEC8
:1009BC000C4B14221A600C4B1B681946012000F0DA
:1009CC0021FE00BF80BD00BF2C0000201F85EB5115
:1009DC0030010020300000202801002034000020CD
:1009EC002C010020240000202800002080B582B0BB
:1009FC0000AF78603960032000F01CFE0346002B2A
:100A0C001DD07B681B68002B04DD7B681B685A1E9D
:100A1C007B681A603B681B68002B04DD3B681B6815
:100A2C005A1E3B681A607B681A683B681B6819463B
:100A3C001046FFF717FE6421032000F0E3FD00BF12
:100A4C000837BD4680BD000080B400AF164B1B6854
:100A5C00002B09DC154B1B68154A82FB0312521143
:100A6C00DB17D31A104A1360124B1B68002B09DCDE
:100A7C00114B1B680E4A82FB03125211DB17D31A5F
:100A8C000C4A13600D4B1B68002B09DC0C4B1B68CC
:100A9C00074A82FB03125211DB17D31A074A136061
:100AAC0000BFBD4680BC7047300100202C000020E8
:100ABC001F85EB5128010020300000202C01002064
:100ACC003400002080B582B000AF874B1B68162B1A
:100ADC0000F01E81162B00F3D481142B03D0152BA0
:100AEC0000F08E80CDE1012000F0A4FD0346002B28
:100AFC0006D02220FFF71AFC3221012000F082FDE3
:100B0C000020FFF7AFFB0346002B16D0774B1B687A
:100B1C00002B03D1764B1B68744A1360FFF7C0FBA4
:100B2C00714B15221A60734B1B6803211846FFF793
:100B3C0099FD3221012000F065FD0120FFF792FBA9
:100B4C000346002B3FD06C4B1B6801336A4A136081
:100B5C00694B1B68632B02DD674B01221A60674BE4
:100B6C001A68674B1B6813447B607B68002B24DD81
:100B7C00614B1B68624A126802FB03F27B6892FBB2
:100B8C00F3F35C4A13605B4B1B68002B02DC594B84
:100B9C0001221A60584B1A68564B1B68D31A594AD3
:100BAC001360584B1B68002B07DC564B01221A6054
:100BBC00514B1B68013B4F4A13604F4B1B68022182
:100BCC001846FFF74FFD0220FFF74CFB0346002BA6
:100BDC0000F05981484B1B68642202FB03F3434A23
:100BEC001360444B1B68642202FB03F3464A1360F8
:100BFC00444B1B68642202FB03F3444A136042E13A
:100C0C00012000F017FD0346002B06D02320FFF730
:100C1C008DFB3221012000F0F5FC0020FFF722FBB8
:100C2C000346002B16D0384B1B68002B03D1344BDA
:100C3C001B68354A1360FFF733FB2B4B16221A60E7
:100C4C00304B1B6804211846FFF70CFD32210120A4
:100C5C0000F0D8FC0120FFF705FB0346002B26D043
:100C6C00244B1B680133234A1360224B1B68632BF4
:100C7C0002DD204B01221A601E4B1A68214B1B68A7
:100C8C0013441D4A13601C4B1B68632B09DD1A4B64
:100C9C0063221A60184B1A681A4B1B68D31A154A30
:100CAC001360144B1B6803211846FFF7DBFC022072
:100CBC00FFF7D8FA0346002B00F0E7800D4B1B68BA
:100CCC00642202FB03F3104A13600B4B1B68642273
:100CDC0002FB03F3054A13600A4B1B68642202FBF8
:100CEC0003F30A4A1360D0E024000020E000002047
:100CFC002C000020280100203001002034000020AE
:100D0C00300000202C010020E4000020E80000202E
:100D1C00012000F08FFC0346002B06D02420FFF7A7
:100D2C0005FB3221012000F06DFC0120FFF79AFA3F
:100D3C000346002B26D0584B1B680133564A1360D0
:100D4C00554B1B68632B02DD534B01221A60534B2E
:100D5C001A68514B1B681344514A1360504B1B6863
:100D6C00632B09DD4E4B63221A604D4B1A684B4BBB
:100D7C001B68D31A484A1360474B1B68042118465A
:100D8C00FFF770FC0220FFF76DFA0346002B14D01E
:100D9C00414B1B68642202FB03F3424A1360404B35
:100DAC001B68642202FB03F33F4A13603B4B1B6836
:100DBC00642202FB03F33D4A13600020FFF752FA52
:100DCC000346002B63D0374B1B68002B03D1384BE9
:100DDC001B68344A1360FFF763FA324B1A68334BC3
:100DEC001B681A44304B1B689A420BD12E4B1B6864
:100DFC00304A13602D4B1B682F4A1360294B1B681C
:100E0C002B4A1360274B00221A60264B1B68274A7B
:100E1C001360264B1B68244A1360264B1B68274A19
:100E2C0082FB03125211DB17D31A1D4A1360224B9B
:100E3C001B68224A82FB03125211DB17D31A174A82
:100E4C0013601B4B1B681D4A82FB03125211DB17EC
:100E5C00D31A114A1360124B1B680F4A12681146C1
:100E6C001846FFF7FFFB164B1E221A60104B1B682F
:100E7C001946012000F0C6FB6421032000F0C2FBE0
:100E8C0005E000BF04E000BF02E000BF00E000BFCF
:100E9C0000BF0837BD4680BD2C0100202801002072
:100EAC0030010020E8000020E0000020E4000020D9
:100EBC00340000202C000020300000201F85EB5156
:100ECC002400002080B500AFFFF73AF900BF80BDC9
:100EDC0080B500AF134B1B68042B0FD0114B1B6854
:100EEC001E2B0BD00F4B1B681F2B07D00D4B1B68F9
:100EFC00202B03D00B4B1B68212B02D1FFF7EEFBF1
:100F0C000DE0084B1B68142B07D0064B1B68152BE8
:100F1C0003D0044B1B68162B01D1FFF7D3FD00BF88
:100F2C0080BD00BF2400002080B500AF0E4B1B68B5
:100F3C00002B03D00C4B1B68022B01D1FFF74AFB93
:100F4C00094B1B681846FFF7EDFA074B1B6801337A
:100F5C00054A1360044B1B68032B02DD024B002275
:100F6C001A6000BF80BD00BFFC00002080B500AF40
:100F7C0000F074FB00BF80BD80B500AF10210248AB
:100F8C0000F09FFF00BF80BD0008014080B400AF9F
:100F9C00044B1B680133034A136000BFBD4680BC81
:100FAC00704700BF0001002080B400AF044B1B68E9
:100FBC000133034A136000BFBD4680BC704700BFBD
:100FCC000401002080B400AF044B1B680133034ABA
:100FDC00136000BFBD4680BC704700BF08010020F5
:100FEC0080B400AF044B1B680133034A136000BF8D
:100FFC00BD4680BC704700BF0C01002080B400AF20
:10100C00044B1B680133034A136000BFBD4680BC10
:10101C00704700BF1001002080B500AF00F038FC15
:10102C0000F086F800F0C0F800F00AF92B4801F047
:10103C008DFB00F097F901220021294800F058FAA5
:10104C000346284A136001220021274800F050FA79
:10105C000346264A136001220021254800F048FA75
:10106C000346244A136001220021234800F040FA71
:10107C000346224A13600A220021214800F038FA64
:10108C000346204A1360052200211F4800F030FA65
:10109C0003461E4A13600A2201211D4800F028FA5B
:1010AC0003461C4A13600F2202211B4800F020FA51
:1010BC0003461A4A136014220321194800F018FA47
:1010CC000346184A136019220421174800F010FA3D
:1010DC000346164A136000F04BFAFCE75C01002053
:1010EC00D10E000834010020DD0E0008380100206C
:1010FC00350F000854010020790F00085001002022
:10110C00850F000844010020990F000858010020A9
:10111C00B50F00083C010020D10F00084801002049
:10112C00ED0F00084C0100200910000840010020C0
:10113C0080B590B000AF07F11803282200211846A3
:10114C0001F0CAFE3B1D00221A605A609A60DA60F8
:10115C001A610223BB610123BB621023FB620023D3
:10116C007B6307F11803184600F0C4FE0346002BFE
:10117C0001D000F0F2F80F237B600023BB6000234A
:10118C00FB6000233B6100237B613B1D0021184663
:10119C0001F030F90346002B01D000F0DEF800BF5F
:1011AC004037BD4680BD000080B586B000AF07F16A
:1011BC00080300221A605A609A60DA603B460022EB
:1011CC001A605A601D4B4FF080421A601B4B41F65F
:1011DC003F725A60194B00229A60184B6322DA60F6
:1011EC00164B00221A61154B00229A61134801F02C
:1011FC005DFA0346002B01D000F0AFF84FF480539A
:10120C00BB6007F1080319460C4801F0DBFB0346F1
:10121C00002B01D000F0A1F800233B6000237B6081
:10122C003B461946054801F0B3FD0346002B01D09F
:10123C0000F093F800BF1837BD4680BD5C0100205C
:10124C0080B588B000AF07F1100300221A605A6015
:10125C009A60DA60354B9B69344A43F01003936112
:10126C00324B9B6903F01003FB60FB682F4B9B69AF
:10127C002E4A43F0040393612C4B9B6903F0040347
:10128C00BB60BB68294B9B69284A43F008039361F8
:10129C00264B9B6903F008037B607B68002247F6B2
:1012AC00F071234800F0F5FD002243F6FF71214850
:1012BC0000F0EFFD4FF400533B6100237B610123F1
:1012CC00BB6107F1100319461B4800F051FC0A23BF
:1012DC003B6100237B610123BB6107F110031946BD
:1012EC00134800F045FC47F6F0733B6101237B612A
:1012FC000023BB610223FB6107F1100319460C4864
:10130C0000F036FC43F6FF733B6101237B61002345
:10131C00BB610223FB6107F110031946054800F07D
:10132C0027FC00BF2037BD4680BD00BF0010024027
:10133C0000080140000C01400010014080B582B053
:10134C0000AF78607B681B68B3F1804F01D100F06F
:10135C002DF800BF0837BD4680BD80B400AF72B613
:10136C0000BFFEE780B582B000AF0AE00C4B1B68F3
:10137C007B600B4B1B685B69094A1360786801F052
:10138C00A3FD074B1B68002BF0D1064B01221A6002
:10139C00054B00221A7000BF0837BD4680BD00BF48
:1013AC0014010020380000201801002080B582B004
:1013BC0000AF1C4B1B68002B2ED01A4B1B685B68B4
:1013CC00002B1FD0174B1B685A68013A5A6019E062
:1013DC00144B1B6801221A73124B1B689B68002B61
:1013EC001CD0104B1A680F4B1B6892685A600D4B3F
:1013FC001B687B600B4B1B685B690A4A136078683F
:10140C0000F012F8074B1B68002B08D0054B1B682B
:10141C005B68002BDCD002E000BF00E000BF0837A7
:10142C00BD4680BD1401002080B485B000AF78604B
:10143C002E4B1B68002B06D07B685A682B4B1B6805
:10144C005B689A4214D2294B1B68002B08D0274B9F
:10145C001B6859687B685A68244B1B688A1A5A6047
:10146C00224B1A687B685A61204A7B68136037E00C
:10147C001E4B1B68FB60FB685B68BB6008E0FB688D
:10148C005B695B68BA681344BB60FB685B69FB60B3
:10149C00FB685B69002B08D0FB685B695A68BB680A
:1014AC001A447B685B689A42E9D97B685A68BB68C6
:1014BC00D21A7B685A60FB685B69002B08D0FB680A
:1014CC005B6959687B685A68FB685B698A1A5A6061
:1014DC00FB685A697B685A61FB687A685A6100BF7D
:1014EC0000BF1437BD4680BC704700BF14010020FC
:1014FC0080B586B000AFF860B9607A601A4B1B7883
:10150C00092B01D900232AE0182001F0D5FC034651
:10151C007B617B69002B01D1002320E07B69FA6899
:10152C001A607B69BA685A607B697A689A607B69D1
:10153C0000221A730D4B1B685A1C0C490A607A69FD
:10154C0013617B6900225A617869FFF76DFF064BC6
:10155C001B780133DAB2044B1A707B691B6918468D
:10156C001837BD4680BD00BF180100203800002090
:10157C0080B584B000AF214B1B68FB600023BB60BF
:10158C0033E0FB681B7B002B2AD0FB681B68984759
:10159C00FB681B7B013BDAB2FB681A73FB689B6828
:1015AC00002B1DD1FB687B60BB68002B07D1FB684F
:1015BC005B69124A1360114B1B68FB6006E0FB6809
:1015CC005A69BB685A61FB685B69FB60786801F01B
:1015DC007BFC0B4B1B78013BDAB2094B1A7004E015
:1015EC00FB68BB60FB685B69FB60FB68002BC8D1C8
:1015FC0000BF00BF1037BD4680BD00BF14010020E6
:10160C001801002080B483B000AF786039600749BE
:10161C007B683A6841F82320054A7B68002142F830
:10162C00231000BF0C37BD4680BC7047A4010020BE
:10163C00CC01002080B483B000AF7860064A7B6890
:10164C0052F82330002B01D1002300E0012318466F
:10165C000C37BD4680BC7047CC01002080B483B0F1
:10166C0000AF00237B601CE0124A7B6852F82330E9
:10167C00002B13DD0F4A7B6852F823305A1E0D499C
:10168C007B6841F823200B4A7B6852F82330002BEF
:10169C0004DC094A7B68012142F823107B68013382
:1016AC007B607B68092BDFDD00BF00BF0C37BD46BC
:1016BC0080BC7047A4010020CC01002080B485B010
:1016CC0000AF154B9B69144A43F001039361124B15
:1016DC009B6903F00103BB60BB680F4BDB690E4ACF
:1016EC0043F08053D3610C4BDB6903F080537B6078
:1016FC007B680A4B5B68FB60FB6823F0E063FB6074
:10170C00FB6843F08063FB60044AFB68536000BFD6
:10171C001437BD4680BC70470010024000000140E9
:10172C0080B584B000AF78607B681B68B3F1804FE4
:10173C0013D10C4BDB690B4A43F00103D361094B0A
:10174C00DB6903F00103FB60FB68002200211C2015
:10175C0000F0D7F91C2000F0F0F900BF1037BD469F
:10176C0080BD00BF0010024080B400AFFEE780B423
:10177C0000AFFEE780B400AFFEE780B400AFFEE739
:10178C0080B400AFFEE780B400AF00BFBD4680BCA4
:10179C00704780B400AF00BFBD4680BC704780B4BA
:1017AC0000AF00BFBD4680BC704780B500AF00F0F5
:1017BC00B5F800BF80BD000080B500AF024801F055
:1017CC0011F800BF80BD00BF5C01002080B586B061
:1017DC0000AF7860144A154BD31A7B617B693B616F
:1017EC00134B1B68002B02D1114B124A1A60104B81
:1017FC001A687B6813443A699A4207D201F032FBAB
:10180C0003460C221A604FF0FF3309E0084B1B68AB
:10181C00FB60074B1A687B681344054A1360FB682E
:10182C0018461837BD4680BD002800200004000073
:10183C001C0100200802002080B400AF00BFBD4690
:10184C0080BC7047FFF7F8FF0B480C490C4A00238B
:10185C0002E0D458C4500433C4188C42F9D3094A5A
:10186C00094C002301E013600432A242FBD301F0C7
:10187C00FFFAFFF7D1FB704700000020AC000020FE
:10188C00C0300008AC00002008020020FEE7000079
:10189C0080B500AF084B1B68074A43F01003136078
:1018AC00032000F023F90F2000F008F8FFF706FFE3
:1018BC000023184680BD00BF0020024080B582B0D6
:1018CC0000AF7860124B1A68124B1B7819464FF414
:1018DC007A73B3FBF1F3B2FBF3F3184600F03BF968
:1018EC000346002B01D001230EE07B680F2B0AD896
:1018FC00002279684FF0FF3000F003F9064A7B684C
:10190C001360002300E0012318460837BD4680BD54
:10191C003C000020440000204000002080B400AFB8
:10192C00054B1B781A46054B1B681344034A13607E
:10193C0000BFBD4680BC704744000020F40100206D
:10194C0080B400AF024B1B681846BD4680BC704784
:10195C00F401002080B485B000AF78607B6803F0A0
:10196C000703FB600C4BDB68BB60BA684FF6FF03E8
:10197C001340BB60FB681A02BB68134343F0BF63A0
:10198C0043F40033BB60044ABB68D36000BF143718
:10199C00BD4680BC704700BF00ED00E080B400AFD6
:1019AC00044BDB681B0A03F007031846BD4680BCDA
:1019BC00704700BF00ED00E080B483B000AF034679
:1019CC00FB7197F90730002B0BDBFB7903F01F023F
:1019DC00064997F907305B09012000FA02F241F839
:1019EC00232000BF0C37BD4680BC704700E100E0EF
:1019FC0080B483B000AF03463960FB7197F90730B0
:101A0C00002B0ADB3B68DAB20C4997F9073012015C
:101A1C00D2B20B4483F800230AE03B68DAB20849DF
:101A2C00FB7903F00F03043B1201D2B20B441A767C
:101A3C0000BF0C37BD4680BC704700BF00E100E022
:101A4C0000ED00E080B489B000AFF860B9607A6056
:101A5C00FB6803F00703FB61FB69C3F10703042B6D
:101A6C0028BF0423BB61FB690433062B02D9FB6935
:101A7C00033B00E000237B614FF0FF32BB6902FAAD
:101A8C0003F3DA43BB681A407B699A404FF0FF318D
:101A9C007B6901FA03F3D9437B680B401343184667
:101AAC002437BD4680BC704780B582B000AF7860EB
:101ABC007B68013BB3F1807F01D301230FE00A4A1D
:101ACC007B68013B53600F214FF0FF30FFF790FF15
:101ADC00054B00229A60044B07221A60002318461B
:101AEC000837BD4680BD00BF10E000E080B582B075
:101AFC0000AF78607868FFF72DFF00BF0837BD4650
:101B0C0080BD80B586B000AF0346B9607A60FB73C8
:101B1C0000237B61FFF742FF78617A68B9687869C6
:101B2C00FFF790FF024697F90F3011461846FFF762
:101B3C005FFF00BF1837BD4680BD80B582B000AFD7
:101B4C000346FB7197F907301846FFF735FF00BFC6
:101B5C000837BD4680BD80B582B000AF786078682C
:101B6C00FFF7A2FF034618460837BD4680BD0000AC
:101B7C0080B48BB000AF7860396000237B620023A7
:101B8C003B6248E101227B6A02FA03F3FB613B688A
:101B9C001B68FA691340BB61BA69FB699A4240F051
:101BAC0037813B685B68A34A93425ED0A14A93425B
:101BBC0075D8A14A934258D09F4A93426FD89F4AF6
:101BCC00934252D09D4A934269D89D4A93424CD03D
:101BDC009B4A934263D89B4A934246D0994A93427C
:101BEC005DD8122B2AD8122B59D801A252F823F007
:101BFC00771C0008511C0008631C0008A51C000879
:101C0C00AB1C0008AB1C0008AB1C0008AB1C00088C
:101C1C00AB1C0008AB1C0008AB1C0008AB1C00087C
:101C2C00AB1C0008AB1C0008AB1C0008AB1C00086C
:101C3C00AB1C0008591C00086D1C0008824A93421A
:101C4C0013D02CE03B68DB683B6229E03B68DB6827
:101C5C0004333B6224E03B68DB6808333B621FE0E3
:101C6C003B68DB680C333B621AE03B689B68002BDB
:101C7C0002D104233B6213E03B689B68012B05D126
:101C8C0008233B627B68FA691A6109E008233B620E
:101C9C007B68FA695A6103E000233B6200E000BFF5
:101CAC00BB69FF2B01D87B6801E07B6804337B6147
:101CBC00BB69FF2B02D87B6A9B0002E07B6A083B66
:101CCC009B003B617B691A680F213B6901FA03F3A6
:101CDC00DB431A40396A3B6901FA03F31A437B6907
:101CEC001A603B685B6803F08053002B00F0908017
:101CFC00564B9B69554A43F001039361534B9B69C7
:101D0C0003F00103BB60BB68514A7B6A9B0802333A
:101D1C0052F82330FB607B6A03F003039B000F2215
:101D2C0002FA03F3DB43FA681340FB607B68494A11
:101D3C0093420DD07B68484A934207D07B68474A50
:101D4C00934201D1022304E0032302E0012300E0CB
:101D5C0000237A6A02F0030292009340FA6813435C
:101D6C00FB603B497B6A9B080233FA6841F82320ED
:101D7C003B685B6803F48013002B06D0384B9A68E1
:101D8C003749BB6913438B6006E0354B9A68BB69D6
:101D9C00DB43334913408B603B685B6803F40013EF
:101DAC00002B06D02E4BDA682D49BB691343CB6050
:101DBC0006E02B4BDA68BB69DB4329491340CB6047
:101DCC003B685B6803F40033002B06D0244B5A6845
:101DDC002349BB6913434B6006E0214B5A68BB692E
:101DEC00DB431F4913404B603B685B6803F4803353
:101DFC00002B06D01A4B1A681949BB6913430B60A8
:101E0C0006E0174B1A68BB69DB43154913400B609E
:101E1C007B6A01337B623B681A687B6A22FA03F3A4
:101E2C00002B7FF4AFAE00BF00BF2C37BD4680BC8B
:101E3C00704700BF0000321000003110000022106B
:101E4C0000002110000012100000111000100240C0
:101E5C000000014000080140000C0140001001404E
:101E6C000004014080B485B000AF78600B467B80E5
:101E7C007B689A687B881340002B02D00123FB738C
:101E8C0001E00023FB73FB7B18461437BD4680BC76
:101E9C00704780B483B000AF78600B467B801346EC
:101EAC007B707B78002B03D07A887B681A6103E007
:101EBC007B881A047B681A6100BF0C37BD4680BC56
:101ECC00704780B485B000AF78600B467B807B6830
:101EDC00DB68FB607A88FB6813401A04FB68D94303
:101EEC007B880B401A437B681A6100BF1437BD46D0
:101EFC0080BC704780B586B000AF78607B68002BE3
:101F0C0001D101236CE27B681B6803F00103002BF9
:101F1C0000F08780924B5B6803F00C03042B0CD011
:101F2C008F4B5B6803F00C03082B12D18C4B5B6856
:101F3C0003F48033B3F5803F0BD1894B1B6803F45A
:101F4C000033002B6CD07B685B68002B68D10123BD
:101F5C0046E27B685B68B3F5803F06D1804B1B681B
:101F6C007F4A43F4803313602EE07B685B68002B60
:101F7C000CD17B4B1B687A4A23F480331360784B6B
:101F8C001B68774A23F4802313601DE07B685B6831
:101F9C00B3F5A02F0CD1724B1B68714A43F480230C
:101FAC0013606F4B1B686E4A43F4803313600BE075
:101FBC006B4B1B686A4A23F480331360684B1B68B5
:101FCC00674A23F4802313607B685B68002B13D073
:101FDC00FFF7B6FC386108E0FFF7B2FC02463B693C
:101FEC00D31A642B01D90323FAE15D4B1B6803F46C
:101FFC000033002BF0D014E0FFF7A2FC386108E0AE
:10200C00FFF79EFC02463B69D31A642B01D90323CC
:10201C00E6E1534B1B6803F40033002BF0D100E0D6
:10202C0000BF7B681B6803F00203002B63D04C4B92
:10203C005B6803F00C03002B0BD0494B5B6803F07F
:10204C000C03082B1CD1464B5B6803F48033002B2C
:10205C0016D1434B1B6803F00203002B05D07B68A1
:10206C001B69012B01D00123BAE13D4B1B6823F006
:10207C00F8027B685B69DB00394913430B603AE07B
:10208C007B681B69002B20D0364B01221A60FFF7AE
:10209C0057FC386108E0FFF753FC02463B69D31A42
:1020AC00022B01D903239BE12D4B1B6803F0020388
:1020BC00002BF0D02A4B1B6823F0F8027B685B697D
:1020CC00DB00274913430B6015E0264B00221A60F6
:1020DC00FFF736FC386108E0FFF732FC02463B693B
:1020EC00D31A022B01D903237AE11D4B1B6803F091
:1020FC000203002BF0D17B681B6803F00803002B54
:10210C003AD07B689B69002B19D0174B01221A60BF
:10211C00FFF716FC386108E0FFF712FC02463B693A
:10212C00D31A022B01D903235AE10D4B5B6A03F03E
:10213C000203002BF0D0012000F09AFA1CE00A4BAD
:10214C0000221A60FFF7FCFB38610FE0FFF7F8FB89
:10215C0002463B69D31A022B08D9032340E100BF86
:10216C000010024000004242800442429E4B5B6AD7
:10217C0003F00203002BE9D17B681B6803F0040316
:10218C00002B00F0A6800023FB75974BDB6903F056
:10219C008053002B0DD1944BDB69934A43F0805351
:1021AC00D361914BDB6903F08053BB60BB680123A7
:1021BC00FB758E4B1B6803F48073002B18D18B4B73
:1021CC001B688A4A43F480731360FFF7B9FB3861CC
:1021DC0008E0FFF7B5FB02463B69D31A642B01D923
:1021EC000323FDE0814B1B6803F48073002BF0D0BC
:1021FC007B68DB68012B06D17B4B1B6A7A4A43F068
:10220C00010313622DE07B68DB68002B0CD1764B4D
:10221C001B6A754A23F001031362734B1B6A724AE3
:10222C0023F0040313621CE07B68DB68052B0CD1E4
:10223C006D4B1B6A6C4A43F0040313626A4B1B6AB6
:10224C00694A43F0010313620BE0674B1B6A664A51
:10225C0023F001031362644B1B6A634A23F00403EB
:10226C0013627B68DB68002B15D0FFF769FB3861C4
:10227C000AE0FFF765FB02463B69D31A41F288324C
:10228C00934201D90323ABE0574B1B6A03F00203C3
:10229C00002BEED014E0FFF753FB38610AE0FFF798
:1022AC004FFB02463B69D31A41F28832934201D963
:1022BC00032395E04C4B1B6A03F00203002BEED179
:1022CC00FB7D012B05D1484BDB69474A23F080533A
:1022DC00D3617B68DB69002B00F08180424B5B682B
:1022EC0003F00C03082B61D07B68DB69022B46D111
:1022FC003F4B00221A60FFF723FB386108E0FFF721
:10230C001FFB02463B69D31A022B01D9032367E05A
:10231C00354B1B6803F00073002BF0D17B681B6AF4
:10232C00B3F5803F08D1304B5B6823F400327B68F7
:10233C009B682D4913434B602B4B5B6823F4741241
:10234C007B68196A7B685B6A0B43274913434B60B4
:10235C00274B01221A60FFF7F3FA386108E0FFF708
:10236C00EFFA02463B69D31A022B01D9032337E05B
:10237C001D4B1B6803F00073002BF0D02FE01C4B9F
:10238C0000221A60FFF7DCFA386108E0FFF7D8FA90
:10239C0002463B69D31A022B01D9032320E0124BCE
:1023AC001B6803F00073002BF0D118E07B68DB692D
:1023BC00012B01D1012313E00B4B5B68FB60FB6825
:1023CC0003F480327B681B6A9A4206D1FB6803F4E3
:1023DC0070127B685B6A9A4201D0012300E00023F3
:1023EC0018461837BD4680BD0010024000700040F2
:1023FC006000424280B584B000AF786039607B6881
:10240C00002B01D10123D0E06A4B1B6803F00703BA
:10241C003A689A4210D9674B1B6823F0070265494A
:10242C003B6813430B60634B1B6803F007033A686C
:10243C009A4201D00123B8E07B681B6803F00203C9
:10244C00002B20D07B681B6803F00403002B05D005
:10245C00594B5B68584A43F4E06353607B681B68D4
:10246C0003F00803002B05D0534B5B68524A43F42E
:10247C0060535360504B5B6823F0F0027B689B68A1
:10248C004D4913434B607B681B6803F00103002B21
:10249C0040D07B685B68012B07D1474B1B6803F46A
:1024AC000033002B15D101237FE07B685B68022B86
:1024BC0007D1414B1B6803F00073002B09D101239A
:1024CC0073E03D4B1B6803F00203002B01D1012389
:1024DC006BE0394B5B6823F003027B685B68364921
:1024EC0013434B60FFF72CFAF8600AE0FFF728FA69
:1024FC000246FB68D31A41F28832934201D9032376
:10250C0053E02D4B5B6803F00C027B685B689B000F
:10251C009A42EBD1274B1B6803F007033A689A42A7
:10252C0010D2244B1B6823F0070222493B6813434B
:10253C000B60204B1B6803F007033A689A4201D0EA
:10254C00012332E07B681B6803F00403002B08D0E6
:10255C00194B5B6823F4E0627B68DB681649134314
:10256C004B607B681B6803F00803002B09D0124BEF
:10257C005B6823F460527B681B69DB000E491343D4
:10258C004B6000F021F802460B4B5B681B0903F013
:10259C000F030A49CB5C22FA03F3094A1360094B77
:1025AC001B681846FFF78AF9002318461037BD46FA
:1025BC0080BD00BF00200240001002409430000893
:1025CC003C0000204000002080B487B000AF002306
:1025DC00FB600023BB6000237B6100237B60002336
:1025EC003B611E4B5B68FB60FB6803F00C03042B28
:1025FC0002D0082B03D027E0194B3B6127E0FB6886
:10260C009B0C03F00F03174AD35C7B60FB6803F44D
:10261C008033002B10D0114B5B685B0C03F0010373
:10262C00114AD35CBB607B680D4A02FB03F2BB68AA
:10263C00B2FBF3F37B6104E07B680C4A02FB03F30F
:10264C007B617B693B6102E0054B3B6100BF3B69F1
:10265C0018461C37BD4680BC704700BF00100240B6
:10266C0000127A00A4300008B430000800093D00C4
:10267C0080B485B000AF78600A4B1B680A4AA2FB95
:10268C0003235B0A7A6802FB03F3FB6000BFFB6861
:10269C005A1EFA60002BF9D100BF00BF1437BD469B
:1026AC0080BC70473C000020D34D621080B582B0D6
:1026BC0000AF78607B68002B01D1012341E07B687F
:1026CC0093F83D30DBB2002B06D17B68002283F8F7
:1026DC003C207868FFF724F87B68022283F83D20C1
:1026EC007B681A687B6804331946104600F056FA6A
:1026FC007B68012283F846207B68012283F83E2008
:10270C007B68012283F83F207B68012283F84020FC
:10271C007B68012283F841207B68012283F84220E8
:10272C007B68012283F843207B68012283F84420D4
:10273C007B68012283F845207B68012283F83D20C9
:10274C00002318460837BD4680BD000080B485B014
:10275C0000AF78607B6893F83D30DBB2012B01D081
:10276C00012335E07B68022283F83D207B681B68DF
:10277C00DA687B681B6842F00102DA607B681B68D0
:10278C00164A934209D07B681B68B3F1804F04D082
:10279C007B681B68124A934211D17B681B689B684B
:1027AC0003F00703FB60FB68062B10D07B681B68EB
:1027BC001A687B681B6842F001021A6007E07B68AC
:1027CC001B681A687B681B6842F001021A600023C0
:1027DC0018461437BD4680BC704700BF002C014022
:1027EC000004004080B584B000AF78607B681B6843
:1027FC00DB68FB607B681B681B69BB60BB6803F014
:10280C000203002B20D0FB6803F00203002B1BD02B
:10281C007B681B686FF002021A617B6801221A77D1
:10282C007B681B689B6903F00303002B03D078685B
:10283C0000F098F905E0786800F08BF9786800F002
:10284C009AF97B6800221A77BB6803F00403002B0B
:10285C0020D0FB6803F00403002B1BD07B681B68A3
:10286C006FF004021A617B6802221A777B681B687E
:10287C009B6903F44073002B03D0786800F072F965
:10288C0005E0786800F065F9786800F074F97B6809
:10289C0000221A77BB6803F00803002B20D0FB68DA
:1028AC0003F00803002B1BD07B681B686FF0080239
:1028BC001A617B6804221A777B681B68DB6903F05A
:1028CC000303002B03D0786800F04CF905E078681E
:1028DC0000F03FF9786800F04EF97B6800221A7717
:1028EC00BB6803F01003002B20D0FB6803F010032F
:1028FC00002B1BD07B681B686FF010021A617B6881
:10290C0008221A777B681B68DB6903F44073002B81
:10291C0003D0786800F026F905E0786800F019F922
:10292C00786800F028F97B6800221A77BB6803F0FE
:10293C000103002B0CD0FB6803F00103002B07D024
:10294C007B681B686FF001021A617868FEF7F6FC71
:10295C00BB6803F08003002B0CD0FB6803F08003F2
:10296C00002B07D07B681B686FF080021A617868B7
:10297C0000F06FFABB6803F04003002B0CD0FB682F
:10298C0003F04003002B07D07B681B686FF04002FC
:10299C001A61786800F0F8F8BB6803F02003002B8C
:1029AC000CD0FB6803F02003002B07D07B681B685E
:1029BC006FF020021A61786800F042FA00BF1037FD
:1029CC00BD4680BD80B584B000AF7860396000230F
:1029DC00FB737B6893F83C30012B01D10223B4E0EC
:1029EC007B68012283F83C207B68022283F83D201F
:1029FC007B681B689B68BB60BB6823F07703BB607C
:102A0C00BB6823F47F43BB607B681B68BA689A6021
:102A1C003B681B68B3F5005F3ED0B3F5005F00F276
:102A2C008780B3F5805F00F08680B3F5805F7FD838
:102A3C00702B1AD0702B7BD8602B50D0602B77D892
:102A4C00502B3CD0502B73D8402B58D0402B6FD8E8
:102A5C00302B64D0302B6BD8202B60D0202B67D838
:102A6C00002B5CD0102B5AD062E07B6818683B6856
:102A7C0099683B685A683B68DB6800F06AF97B68C8
:102A8C001B689B68BB60BB6843F07703BB607B68CB
:102A9C001B68BA689A604FE07B6818683B68996855
:102AAC003B685A683B68DB6800F053F97B681B682D
:102ABC009A687B681B6842F480429A603CE07B68B1
:102ACC0018683B6859683B68DB681A4600F0CAF81E
:102ADC007B681B685021184600F021F92CE07B68BC
:102AEC0018683B6859683B68DB681A4600F0E8F8E0
:102AFC007B681B686021184600F011F91CE07B68AC
:102B0C0018683B6859683B68DB681A4600F0AAF8FD
:102B1C007B681B684021184600F001F90CE07B68CB
:102B2C001A683B681B681946104600F0F8F803E079
:102B3C000123FB7300E000BF7B68012283F83D207A
:102B4C007B68002283F83C20FB7B18461037BD467F
:102B5C0080BD80B483B000AF786000BF0C37BD4639
:102B6C0080BC704780B483B000AF786000BF0C3776
:102B7C00BD4680BC704780B483B000AF786000BFA6
:102B8C000C37BD4680BC704780B483B000AF786012
:102B9C0000BF0C37BD4680BC7047000080B485B0C8
:102BAC0000AF786039607B681B68FB607B682B4AE0
:102BBC00934207D07B68B3F1804F03D07B68284ADF
:102BCC00934208D1FB6823F07003FB603B685B68A1
:102BDC00FA681343FB607B68204A934207D07B68FA
:102BEC00B3F1804F03D07B681D4A934208D1FB6838
:102BFC0023F44073FB603B68DB68FA681343FB60AB
:102C0C00FB6823F080023B685B691343FB607B68C5
:102C1C00FA681A603B689A687B68DA623B681A68E3
:102C2C007B689A627B680D4A934203D13B681A69B0
:102C3C007B681A637B6801225A617B681B6903F00D
:102C4C000103002B05D07B681B6923F001027B6814
:102C5C001A6100BF1437BD4680BC7047002C014080
:102C6C000004004080B487B000AFF860B9607A60AF
:102C7C00FB681B6A7B61FB681B6A23F00102FB6823
:102C8C001A62FB689B693B613B6923F0F0033B6173
:102C9C007B681B013A6913433B617B6923F00A0390
:102CAC007B617A69BB6813437B61FB683A699A6103
:102CBC00FB687A691A6200BF1C37BD4680BC70473E
:102CCC0080B487B000AFF860B9607A60FB681B6AAB
:102CDC007B61FB681B6A23F01002FB681A62FB68BD
:102CEC009B693B613B6923F470433B617B681B032D
:102CFC003A6913433B617B6923F0A0037B61BB689A
:102D0C001B017A6913437B61FB683A699A61FB6822
:102D1C007A691A6200BF1C37BD4680BC704780B40C
:102D2C0085B000AF786039607B689B68FB60FB689E
:102D3C0023F07003FB603A68FB68134343F007030E
:102D4C00FB607B68FA689A6000BF1437BD4680BC94
:102D5C00704780B487B000AFF860B9607A603B60B0
:102D6C00FB689B687B617B6923F47F437B613B68D9
:102D7C001A027B681A43BB6813437A6913437B615D
:102D8C00FB687A699A6000BF1C37BD4680BC7047EF
:102D9C0080B485B000AF786039607B6893F83C30C4
:102DAC00012B01D1022341E07B68012283F83C20F6
:102DBC007B68022283F83D207B681B685B68FB60A4
:102DCC007B681B689B68BB60FB6823F07003FB602F
:102DDC003B681B68FA681343FB607B681B68FA68E6
:102DEC005A607B681B68144A934209D07B681B6845
:102DFC00B3F1804F04D07B681B68104A93420CD10E
:102E0C00BB6823F08003BB603B685B68BA68134304
:102E1C00BB607B681B68BA689A607B68012283F888
:102E2C003D207B68002283F83C2000231846143791
:102E3C00BD4680BC704700BF002C01400004004020
:102E4C0080B483B000AF786000BF0C37BD4680BC47
:102E5C00704780B483B000AF786000BF0C37BD46BC
:102E6C0080BC7047014B1868704700BF48000020B9
:102E7C0070B500260C4D0D4C641BA410A64209D154
:102E8C0000F0F6F800260A4D0A4C641BA410A6426A
:102E9C0005D170BD55F8043B98470136EEE755F85F
:102EAC00043B98470136F2E7B8300008B830000808
:102EBC00B8300008BC300008024B0146186800F01E
:102ECC005FB800BF48000020024B0146186800F0B4
:102EDC000BB800BF4800002003460244934200D1C7
:102EEC00704703F8011BF9E738B50546002943D0B4
:102EFC0051F8043C0C1F002BB8BFE41800F0AAF8E2
:102F0C001E4A1368104633B9636014602846BDE846
:102F1C00384000F0A5B8A3420AD921686218934240
:102F2C0001BF1A685B685218226063600460EDE7A9
:102F3C001A465B680BB1A342FAD911685018A0422B
:102F4C000BD120680144501883421160DED11868FF
:102F5C005B68014411605360D8E702D90C232B60E5
:102F6C00D4E7206821188B4201BF19685B680918E7
:102F7C00216063605460C9E738BD00BF20010020A8
:102F8C00F8B5CD1C25F0030508350C2D38BF0C25E4
:102F9C00002D064601DBA94203D90C233360002027
:102FAC00F8BD00F057F821490A6814469CB9204F27
:102FBC003B6823B92146304600F03CF8386029467E
:102FCC00304600F037F8431C23D10C2330463360D5
:102FDC0000F046F8E3E723685B1B17D40B2B03D9EF
:102FEC0023601C44256004E06368A2420CBF0B60A4
:102FFC005360304600F034F804F10B00231D20F030
:10300C000700C21ACCD01B1AA350C9E72246646829
:10301C00CCE7C41C24F00304A042E3D0211A3046B0
:10302C0000F008F80130DDD1CFE700BF200100200F
:10303C002401002038B50023054D044608462B60BA
:10304C00FEF7C4FB431C02D12B6803B1236038BDCF
:10305C00F8010020014800F009B800BF0002002070
:10306C00014800F004B800BF000200207047704710
:10307C00F8B500BFF8BC08BC9E467047F8B500BF59
:08308C00F8BC08BC9E46704729
:103094000000000000000000010203040607080904
:1030A40002030405060708090A0B0C0D0E0F101085
:0430B4000102000015
:0430B80031010008DA
:0430BC000D010008FA
:1030C00001000000010000000100000001000000FC
:1030D00000100140000801400008014000200200EB
:1030E000080000000400000032000000F4010000AD
:1030F000C80000002C0100000100000000127A004E
:1031000010000000010000004C0000200000000042
:1031100000000000000000000000000000000000AF
:10312000000000000000000000000000000000009F
:10313000000000000000000000000000000000008F
:10314000000000000000000000000000000000007F
:10315000000000000000000000000000000000006F
:0C31600000000000000000000000000063
:040000050800185186
:00000001FF
